:020000040800F2
:100000007007002091010008931D00085F1A000886
:10001000911D000815060008F121000800000000ED
:10002000000000000000000000000000971D000814
:100030001706000800000000951D0008111E0008AA
:10004000AB010008AB010008AB010008AB010008E0
:10005000AB010008AB010008AB010008AB010008D0
:10006000AB010008AB010008AB010008AB010008C0
:10007000AB010008AB010008AB010008AB010008B0
:10008000AB010008AB010008AB010008AB010008A0
:10009000AB010008AB010008AB010008AB01000890
:1000A000AB010008751E0008AB010008AB01000899
:1000B000AB010008AB010008AB010008AB01000870
:1000C000AB010008AB010008AB010008AB01000860
:1000D000AB010008E5210008AB010008AB010008F6
:1000E000AB010008AB010008AB01000800F002F80A
:1000F00000F03FF80AA090E8000C82448344AAF183
:100100000107DA4501D100F034F8AFF2090EBAE880
:100110000F0013F0010F18BFFB1A43F0010318473B
:100120001822000038220000103A24BF78C878C195
:10013000FAD8520724BF30C830C144BF04680C60ED
:10014000704700000023002400250026103A28BF35
:1001500078C1FBD8520728BF30C148BF0B60704739
:10016000782900F07180002070471FB51FBD10B5C1
:1001700010BD00F0F0F91146FFF7F7FF02F050F85C
:1001800000F00EFA03B4FFF7F2FF03BC00F016FA1A
:100190000948804709480047FEE7FEE7FEE7FEE71B
:1001A000FEE7FEE7FEE7FEE7FEE7FEE70448054957
:1001B000054A064B70470000731E0008ED0000085A
:1001C00070010020700700207003002070030020E1
:1001D0000FB41CB5074B06AA7B44694600900598EE
:1001E00000F0A1F90020694600F0B0F91CBC5DF8F0
:1001F00014FB00007103000070B5044685690068B7
:10020000C10601D5302600E02026C00707D070BD0A
:10021000D4E9012130469047206A401C20626D1EBF
:10022000F6D570BD70B5044685690078C00707D162
:1002300070BDD4E9012120209047206A401C206233
:100240006D1EF6D570BD000070B504460D46214602
:100250001068AFF300802188090502D50F4A7A445F
:1002600002E00E4A7A440E32002104F1240305E034
:1002700000F00F060009965D5E54491C0028F7D176
:1002800020780023000704D5702D02D009B1022385
:1002900011322046BDE8704000F0E7B89C20000015
:1002A0002DE9F05F894604464FF0000ADFF824B1DB
:1002B000FB44C0F820A02046E168884700287DD094
:1002C000252806D0D4E901219047206A401C2062ED
:1002D000F1E700255F462046E1688847202806466A
:1002E00007DB312E05D2B81910F8200C08B10543F0
:1002F000F1E7A80701D525F00405C4F81CA00027E4
:10030000C4F818A02A2E09D0304601F082FF38B375
:1003100004EB8708303EC8F8186019E059F8041B50
:10032000204604EB87029161E1688847012F064669
:1003300018D1E069002820DA25F020051DE0D8F862
:10034000180000EB800006EB40003038C8F81800B9
:100350002046E1688847064601F05BFF0028EED1A1
:10036000012F0AD02E2E08D12046E16888477F1C35
:100370000646022F45F02005C4DBA069002803DAF9
:10038000404245F00105A061E80701D025F01005C5
:10039000A6B1A6F14100192802D8203645F400651F
:1003A0004A463146204625604D46FFF7D9FE60B1EA
:1003B000012807D0ED1D25F0070000E007E000F15F
:1003C000080978E705F1040975E730467AE7206AFD
:1003D000BDE8F09F7220000010B5431C02E010F849
:1003E000011B71B18107FAD14FF0013202C88C1A9A
:1003F0008C4314EAC211F9D0C01A0A0603D0C01EF9
:1004000010BDC01A10BD0A0401D0801E10BD090223
:10041000FCD0401E10BD4FF0000200B513469446BC
:100420009646203922BFA0E80C50A0E80C50B1F14C
:100430002001BFF4F7AF090728BFA0E80C5048BF60
:100440000CC05DF804EB890028BF40F8042B08BFFE
:10045000704748BF20F8022B11F0804F18BF00F8FA
:10046000012B70477047704770472DE9F0470D46E4
:1004700099469246044600F124080168880604D58E
:10048000E06921F01001216000E00120A84201DDB7
:10049000471B00E00027A1697A1902EB0900081A3E
:1004A000A0612078C00602D42046FFF7A5FE0026F2
:1004B00008E0D4E901211AF806009047206A401CA0
:1004C000761C20624E45F4DB2078C0060AD5204613
:1004D000FFF792FE06E0D4E9012130209047206A20
:1004E000401C2062381EA7F10107F4DC07E0D4E9C4
:1004F000012118F805009047206A401C2062281E40
:10050000A5F10105F3DC2046FFF78CFE20780006FC
:1005100002D50220BDE8F0870120FBE701694A1CF3
:1005200002610878704700B58FB0CDE90131002134
:10053000059105497944CDE9031011466846FFF756
:10054000AFFE0FB000BD0000E5FFFFFF0A6802F834
:10055000010B0A607047754600F02CF8AE460500A6
:100560006946534620F00700854618B020B5FFF7CE
:100570001DFEBDE820404FF000064FF000074FF091
:1005800000084FF0000B21F00701AC46ACE8C009B1
:10059000ACE8C009ACE8C009ACE8C0098D467047BA
:1005A00010B50446AFF300802046BDE81040FFF7C9
:1005B000E9BD0000004870470C01002001491820E7
:1005C000ABBEFEE726000200704770B54FF0FF3467
:1005D000002314E0C55C312D05D0561EB3420ADA63
:1005E000302D04D007E0644264B2CC5405E0C51855
:1005F0006D78302D06D00025CD545B1CDBB29342C4
:10060000E8D370BD644264B2CC54CD185B1C6C70EE
:10061000DBB2F2E7FEE7704710B590F82110002238
:10062000022905D00421816380F82020012010BD1B
:1006300001680B6823F00E030B6001680B6823F060
:1006400001030B6090F84030C46B012101FA03F301
:10065000636080F8211080F82020104610BD000053
:1006600010B590F821100024022903D004218163E1
:1006700001243DE001680A6822F00E020A60016868
:100680000A6822F001020A601A4A0168914201D107
:10069000012121E0174A1432914201D110211BE0BF
:1006A000144A2832914201D1891515E0114A3C3291
:1006B000914201D189140FE00E4A5032914202D189
:1006C0004FF4803108E00B4A6432914202D14FF47A
:1006D000801101E04FF08071064A083A5160012113
:1006E00080F82110002180F82010416B01B188476B
:1006F000204610BD080002402DE9F84FDFF8B89100
:100700000024A9F1040B23460F2709F1040AABF1D9
:10071000040EC9E00125A5402A40AA427DD1674EBA
:10072000D1F804C0ACEB0608B44532D014DCBCF1FF
:10073000030F3AD009DCBCF1000F2AD0BCF1010F45
:100740001CD0BCF1020F31D11DE0BCF1110F17D04C
:10075000BCF1120F2AD119E0B8F5881F19D006DCB8
:10076000B8F5803F15D0B8F5801F1FD111E0B8F55E
:10077000001F0ED0B8F5041F18D10AE0CB6815E0B1
:10078000CB681B1D12E0CB6808330FE0CB680C333D
:100790000CE08B682BB1012B4FF0080303D04561AF
:1007A00004E0042302E0056100E00023FF2A01D8F1
:1007B000064601E000F104064FEA840501D9A5F1DF
:1007C0002005D6F8008007FA05FC28EA0C0803FA91
:1007D00005F548EA0508C6F800804D68ED0062D5C9
:1007E000374DAE6946F00106AE61AD6924F00306EF
:1007F00005F001050095334D06EB050CDCF80850BB
:10080000A607360F07FA06F825EA0805DFF8B880CC
:10081000404503D14FF0000817E044E0DFF8AC801A
:10082000404502D14FF001080FE0DFF8A4804045B9
:1008300002D14FF0020808E0DFF89880404502D16D
:100840004FF0030801E04FF0040808FA06F848EA00
:100850000508CCF808804D68D9F80060ED024D46D7
:1008600001D5164300E096432E604D68DAF800602B
:10087000AD02554601D5164300E096432E604D6803
:10088000DBF80060AD035D4601D5164300E09643FA
:100890002E604D68DEF80060ED03754601D5164305
:1008A00000E096432E60641C0D682A46E5407FF404
:1008B00031AFBDE8F88F00000804014000001110BE
:1008C000001002400000014000080140000C0140FF
:1008D000001001400014014001488068704700008A
:1008E0000400002070B5040025D094F83D000025D8
:1008F00020B984F83C50204600F04EF9242084F8BA
:100900003D002068016821F0010101602068016854
:1009100041F4004101602068016821F40041016058
:1009200000F096FA4D4A6168914201D84C4900E0C6
:100930004C49884201D2012070BD4B492368B0FB6D
:10094000F1F15E6826F03F060E435E6063689342F5
:1009500006D94FF4967359434FF47A73B1FBF3F110
:100960002368491C1E6A26F03F06314319626168FC
:10097000914210D84900401EB0FBF1F2521CC2F364
:100980000B02042A01D2042022E0B0FBF1F0401C4B
:10099000C0F30B001CE0A268F2B301EBC10303EB50
:1009A0000116431EB3FBF6F35B1C43F480431B05A7
:1009B00049D092B301EBC10202EB0111401EB0FB22
:1009C000F1F0401CC0F30B0040F4804040F40040C4
:1009D0002168CA694CF6FF739A431043C861D4E991
:1009E000071001432068026822F0C0021143016031
:1009F000D4E9030101432068826848F2FF339A4337
:100A000011438160D4E9050108432168CA6822F0D6
:100A1000FF021043C86001E00EE016E020680168A4
:100A200041F0010101602564202084F83D00256328
:100A300084F83E50002070BD01EB4106431EB3FB1D
:100A4000F6F35B1CB3E70120C2E701EB4101401E56
:100A5000B0FBF1F0401CC0F30B00B7E7A08601002B
:100A600080841E0000093D0040420F002DE9F84F30
:100A70001F4690468A460446DDF82890FFF72CFF73
:100A8000054694F83D0020287FD1192301224049D2
:100A90002046009501F076F8002876D194F83C00C5
:100AA000012872D0012084F83C0020680168C90741
:100AB00003D1016841F0010101602068016821F45F
:100AC00000610160212084F83D00102084F83E0080
:100AD00000262664C4F824806785608D20852D4813
:100AE000E0622B464A465146204600F0D1FF90B9BD
:100AF000206841698069009036E02A4649462046D0
:100B000001F0E6F850B1206C042804D12068016897
:100B100041F4007101600120BDE8F88F606A21682E
:100B200000780861606A401C6062618D491E6185C1
:100B3000218D491E89B2218522685369DB435B07F9
:100B40000BD451B100781061606A401C6062608D06
:100B5000401E6085208D401E20852A46494620463D
:100B600000F0E4FF0028CED1208D0028C5D154F834
:100B70003D0B016841F400710160202004F81E095A
:100B8000E67766770020C7E7FFE70220C4E70000AA
:100B9000020010000000FFFF10B586B00021009198
:100BA00001910291039100680F4988421AD10F4CBC
:100BB000A06940F00800A061A069694600F0080043
:100BC0000490C02000901220019003200390084858
:100BD000FFF792FDE06940F40010E061E06900F485
:100BE0000010049006B010BD0054004000100240F8
:100BF000000C01400248816802781144816070470E
:100C000004000020074810B5016841F010010160A0
:100C1000032000F075F80F2000F006F800F024F82B
:100C2000002010BD0020024070B50D4D04464FF469
:100C30007A712878B1FBF0F00A490968B1FBF0F04D
:100C400000F0DCFA48B9102C07D200222146501ED1
:100C500000F036F800206C6070BD012070BD00000F
:100C600004000020100000200C4808B5816941F004
:100C700001018161816901F001010091C16941F0C7
:100C80008051C161C06900F0805000900448416803
:100C900021F0E06141F00071416008BD00100240A8
:100CA00000000140002809DB00F01F0201219140F3
:100CB0004009800000F1E020C0F8001170470000FA
:100CC000F0B40E4B1B680C46C3F30223C3F10705B7
:100CD000042D00D90425191D072901D2002300E0A5
:100CE000DB1E012606FA05F1491E214099409E406F
:100CF000761E16403143F0BC01F07BBA0CED00E0EB
:100D0000064900F0070208684FF6FF03184040EA62
:100D10000220034A10430860704700000CED00E019
:100D20000000FA052DE9F0470F46050061D0434E5B
:100D3000306800F00700B84209D2306820F00700A0
:100D400038433060306800F00700B84251D128685D
:100D50003B4C810712D5400703D5606840F4E06042
:100D600060602878000703D5606840F460506060D8
:100D70006068A96820F0F000084360602878C00728
:100D800028D06868012810D02168022810D089076F
:100D900000292EDA616821F0030101436160FFF749
:100DA0009BFD804641F288390DE021688903EFE719
:100DB0008901EDE7FFF790FDA0EB0801494502D955
:100DC0000320BDE8F0876068696800F00C00B0EBB4
:100DD000810FEFD1306800F00700B8420BD93068BE
:100DE00020F0070038433060306800F00700B84258
:100DF00001D00120E5E72878400705D56068E9685B
:100E000020F4E060084360602878000706D5606839
:100E1000296920F4605040EAC100606000F038F8B1
:100E20006168084AC1F30311515CC8400649086073
:100E300006480068FFF7F8FE0020C2E700200240E5
:100E400000100240E62200081000002008000020E8
:100E50000448054900684968044AC1F30221515C0D
:100E6000C84070471000002000100240F622000821
:100E70000448054900684968044AC1F3C221515C2D
:100E8000C84070471000002000100240F622000801
:100E90000E4A51680E4801F00C03042B11D0082BA8
:100EA0000FD10C48C1F38343C903C05C0AD5516814
:100EB000084AC1F34041921E515C054A5043B0FBC1
:100EC000F1F07047044948437047000000100240A9
:100ED00000127A00D622000800093D002DE9F84FE3
:100EE000040070D02078C04DC00749D06868C0F3B6
:100EF0008100012807D06868C0F38100022809D169
:100F00006868C00306D52868800339D56068002862
:100F1000E7D035E06068B0F5803F0BD010B1B0F598
:100F2000A02F11D0286820F480302860286820F491
:100F3000802002E0286840F480302860606890B12A
:100F4000FFF7CAFC06460AE0286840F480202860C3
:100F5000F0E700BFFFF7C0FC801B642873D8286847
:100F60008003F7D50CE0FFF7B7FC064605E000BFAD
:100F7000FFF7B2FC801B6428F0D828688003F7D400
:100F800020789A4E80074FF001094FF0000839D5BC
:100F9000686810F00C0F07D06868C0F38100022861
:100FA00009D16868C00306D42868800714D5206971
:100FB000012808D110E02069B0B1C6F80090FFF711
:100FC0008BFC074605E00AE1FFF786FCC01B022800
:100FD000C4D828688007F7D52868616920F0F80030
:100FE00040EAC10028600DE0C6F80080FFF774FCFD
:100FF000074604E0FFF770FCC01B022823D82868CE
:101000008007F7D4207800072CD57948A169D9B199
:10101000C0F80090FFF760FC074604E0FFF75CFCB7
:10102000C01B02280FD8686A8007F7D571484FF4B3
:10103000FA510068B0FBF1F0009000BF0098411E2B
:101040000091FAD20EE080E0C0F80080FFF744FC87
:10105000074604E0FFF740FCC01B022875D8686A09
:101060008007F7D42078400760D5E8690027C000E2
:1010700008D4E86940F08050E861E869012700F091
:10108000805000905C480168C90513D4016883460C
:1010900041F480710160FFF71FFC824606E000BF4B
:1010A000FFF71AFCA0EB0A0064284ED8DBF800001A
:1010B000C005F5D5E06801280AD008B1052813D08D
:1010C000286A20F001002862286A20F0040002E06B
:1010D000286A40F001002862E06841F2883B98B13C
:1010E000FFF7FAFB82460BE0286A40F00400286212
:1010F000EEE700BFFFF7F0FBA0EB0A0159455AD815
:10110000286A8007F6D50CE0FFF7E6FB824605E08B
:10111000FFF7E2FBA0EB0A0159454CD8286A80078B
:10112000F6D41FB1E86920F08050E861E06988B327
:101130006968C1F38101022944D00228C6F86080A1
:1011400004D0FFF7C9FB044638E034E0FFF7C4FBE6
:10115000074604E0FFF7C0FBC01B02282BD8286815
:101160008001F7D4206AB0F5803F05D16868A16896
:1011700020F4003008436860D4E908010843696836
:1011800021F4741108436860C6F86090FFF7A4FB6F
:10119000044606E025E000BFFFF79EFB001B022887
:1011A00009D828688001F7D51BE000BFFFF794FB42
:1011B000001B022802D90320BDE8F88F28688001AF
:1011C000F4D40EE00128F7D06868226A00F4803178
:1011D000914204D1616A00F47010884201D001206C
:1011E000EAE70020E8E70000001002400000424269
:1011F00080044242100000200070004010B5401EE4
:10120000B0F1807F01D3012010BD4FF0E024606178
:101210000F21601700F0EDFF0020A0610720206182
:10122000002010BD7047704770B590F83C20012A2F
:1012300026D0012480F83C40022280F83D2003683B
:101240005A689D6822F070060A6832435A600D4B56
:1012500002689A4208D0B2F1804F05D00A4B9A42F8
:1012600002D00A4B9A4204D1496825F08003194301
:10127000916080F83D40002180F83C10084670BD28
:10128000022070BD002C0140000400400008004016
:1012900010B5040003D094F83D0010B107E0012020
:1012A00010BD002084F83C00204600F01FF802200A
:1012B00084F83D00211D206800F0E2FD012084F843
:1012C000460084F83E0084F83F0084F8400084F82B
:1012D000410084F8420084F8430084F8440084F814
:1012E000450084F83D00002010BD000008B50068EE
:1012F0000B49884212D10B48816941F40061816138
:101300008069002200F40060009001211920FFF79D
:10131000D7FCBDE808401920FFF7C4BC08BD000099
:10132000002C01400010024090F83D10012901D02E
:1013300001207047022180F83D100168CA6842F020
:101340000102CA6000680B49884208D0B0F1804FA2
:1013500005D00949884202D00849884204D18168F1
:1013600001F00701062903D0016841F00101016085
:1013700000207047002C014000040040000800409D
:1013800001680A6A41F211131A4207D10A6A9B10D6
:101390001A4203D10A6822F001020A60012180F892
:1013A0003D100020704770B5044690F83C000025C1
:1013B000012817D0012684F83C60022084F83D0003
:1013C0002068826822F0770222F47F4282600868F7
:1013D000502838D00DDC20284FD005DC90B31028E1
:1013E00011D14AE0022070BD302846D040280AD1F1
:1013F0003BE060282FD070280DD0B0F5805F03D07F
:10140000B0F5005F12D0012584F83D60002084F81B
:101410003C00284670BDCB68D1E90121206800F06E
:101420006BFD2068816841F0770109E0CB68D1E964
:101430000121206800F060FD2068816841F480414E
:101440008160E1E719E0CA684968206800F066FD3C
:101450005021206806E0CA684968206800F06FFDE6
:101460006021206800F052FDCEE7CA684968206814
:1014700000F054FD40212068F4E722680146104640
:10148000F0E770472DE9F04104460068C668056939
:101490004FF00007A90713D5B10711D5F91E016157
:1014A00001202077206880698007204602D0FFF75E
:1014B000E8FF04E000F07EF8204600F07CF8277793
:1014C000680716D5700714D521686FF0040008610D
:1014D000022020772068806910F4407F204602D0E7
:1014E000FFF7CFFF04E000F065F8204600F063F856
:1014F0002777280715D5300713D521686FF0080026
:101500000861042020772068C0698007204602D047
:10151000FFF7B7FF04E000F04DF8204600F04BF86D
:101520002777E80616D5F00614D521686FF010006D
:101530000861082020772068C06910F4407F2046A9
:1015400002D0FFF79EFF04E000F034F8204600F0E0
:1015500032F82777E80708D0F00706D021686FF047
:1015600001000861204600F027F8280608D530065B
:1015700006D521686FF0800008612046FFF752FE13
:10158000680608D5700606D521686FF0400008612E
:10159000204600F03DF8A8060AD5B00608D5216817
:1015A0006FF0200008612046BDE8F041FFF73BBE28
:1015B000BDE8F0817047704710B5134900680968AD
:1015C000884219D1114C10492046627800789A312E
:1015D00042B1012A08D00022627008280DD2401CB6
:1015E000C0B22070085600E000200749543900F0CE
:1015F000D3FB6078401C607010BD2270BDE81040C5
:101600000148FFF7BDBE0000680000200000002078
:101610007047704770470000F8B5016804460868D5
:10162000CA684B6910F00F0F4FF0000559D003F056
:10163000010602F49077374365D0C10705D0D10584
:1016400003D5616C41F001016164410705D5D907FB
:1016500003D0616C41F002016164810705D5D907AF
:1016600003D0616C41F004016164010707D502F009
:101670002001314303D0616C41F008016164616C69
:1016800000293AD0800604D5900602D5204600F005
:1016900097FC20684069616CC0F38010090700D492
:1016A00060B3204600F065FC20684069400621D503
:1016B0002068143050E8001F21F0400140E800127B
:1016C000002AF5D1E06BA8B16D494163E06BFEF7EC
:1016D000C7FF002811D0E06B416B01B0BDE8F040BE
:1016E000084783060FD593060DD52046BDE8F84080
:1016F00000F066BC2046FFF78DFFF8BD2046FFF7DF
:1017000089FF6564F8BD266B2023012E7CD1C606B7
:101710007AD5D60678D508684868009048694FF0B1
:101720000206400640D5E16B086840680004000CE2
:10173000E8D0A28D8242E5D9E085886920282DD0A5
:1017400020680C3050E8001F21F4807140E800123E
:10175000002AF5D12068143050E8001F21F0010163
:1017600040E80012002AF5D12068143050E8001F2C
:1017700021F0400140E80012002AF5D184F84230FF
:10178000256320680C3050E8001F21F0100140E86C
:101790000012002AF5D1E06BFEF73EFF6663A08DD4
:1017A000E18D401A81B22AE0A08DE18D401A81B20C
:1017B000E08D0028A6D00029A4D022680C3252E87F
:1017C000000F20F4907042E80007002FF5D1206848
:1017D000143050E8002F22F0010240E80027002FCB
:1017E000F5D184F84230256320680C3050E8002F92
:1017F00022F0100240E80023002BF5D1666320465A
:10180000FFF707FFF8BDFFE705062BD5150629D51D
:1018100094F841002128F5D1A068B0F5805F01D18E
:101820002069B0B1206A411C2162216800784860BB
:10183000E08C401E0004000CE084E3D12068C16805
:1018400021F08001C1602068C16841F04001C160A1
:10185000D8E7206A0088C0F308004860206A801C2E
:101860002062E5E74006CDD55006CBD5CA682046B4
:1018700022F04002CA6084F8413000F0EFF8C1E77E
:10188000631F000870B5040004D094F841000025DF
:1018900010B106E0012070BD84F84050204600F0F1
:1018A00023F8242084F841002068C16821F4005105
:1018B000C160204600F0E6FB2068016921F49041F8
:1018C00001612068416921F02A0141612068C168F5
:1018D00041F40051C1606564202084F8410084F81F
:1018E00042006563002070BD30B585B000240094CF
:1018F0000194029403940068184988422CD1184836
:10190000816941F480418161816901F480410491E0
:10191000816941F0040181618069124D00F0040089
:1019200004904FF400700090022001900320039077
:1019300069462846FEF7E0FE2815CDE90004694611
:1019400028460294FEF7D8FE002211462520FFF714
:10195000B7F92520FFF7A6F905B030BD00380140E2
:10196000001002400008014090F84230202B01D0C6
:101970000220704721B11AB10023036300F0DEBBDF
:101980000120704710B50C4900680968884212D1DF
:1019900009490A225231A1F10A00FEF716FE064853
:1019A0004838FFF7C1FC04490A22BDE8104048311D
:1019B0000148FFF7D9BF10BDB00000202DE9F84362
:1019C000044690F84100984616460D46202802D05D
:1019D0000220BDE8F88385B17EB10020606421203B
:1019E00084F84100FEF778FFA6848146E684A0686B
:1019F0002027B0F5805F02D003E00120E9E72069ED
:101A000010B12E4600250EE000260CE08021204675
:101A100000F0AFFBA8B9C6B116F8010B2168486009
:101A2000E08C401EE084E08C4B464FF00002CDF885
:101A300000800028EAD14FF04001204600F099FBD9
:101A400040B184F841700320C3E735F8020BC0F3BE
:101A50000800E3E784F841700020BAE77047FEE72A
:101A600001684A69D24352050FD46FF480624A611B
:101A7000002140F8301F202242738173026942F036
:101A800004020261017301207047002070470000CA
:101A9000F8B50446C06A1E460D461746082807D00A
:101AA000012805D010F5803F02D0206B122804D108
:101AB0002068016841F480710160134600224FF0F4
:101AC00001112046009600F05DF840B120680068E2
:101AD000C00502D54FF4007020640320F8BD2069D2
:101AE000B0F5804F0ED00620216800EAD51040F0F6
:101AF000F000086133463A460B49204600F08AF868
:101B000078B902E005F0FE0000E0E8B22168086163
:101B1000054933463A46891F204600F07BF80028E5
:101B2000DCD00120F8BD00000800010070B51646A9
:101B30000D4604461EE02046FFF792FF08B1012043
:101B400070BD681C16D0FEF7C7FE801BA84200D8E7
:101B500085B920684069C04340070BD5002044F890
:101B6000300F20216173A073216941F020012161B0
:101B70002073E4E720684069C0434007DBD40020BD
:101B800070BD00002DE9F047984617460D46044603
:101B9000C1F30746DDF820902AE000BFB8F1FF3F0F
:101BA00026D0FEF799FEA0EB0901414502D8B8F115
:101BB000000F1DD12068012E16D0806925EA000093
:101BC0000004000C12D00020B84211D1002044F8CB
:101BD000300F20216173A073216941F02001216140
:101BE00020730120BDE8F0874069E7E70120EBE7BB
:101BF0002068012E0AD0806925EA00000004000C4C
:101C000006D00020B842C9D00020EBE74069F3E7D6
:101C10000120F7E72DE9F047984616460D460446A1
:101C20004FF000094FF0200AC1F3074723E0206876
:101C30004069C043400515D42068016841F4007133
:101C4000016021686FF480604861C4F8309084F8C6
:101C50003DA084F83E90216C41F00401216484F899
:101C60003C9021E0701C06D0FEF736FEA0EB080089
:101C7000B04203D816B1012F1FD021E02068012FF8
:101C800015D0806925EA00000004000C18D000BFC0
:101C900044F8309F84F80DA084F80E90216941F03B
:101CA0002001216184F80C900120BDE8F087406993
:101CB00025EA00000004000CEAD12068406901E038
:101CC0002068806925EA00000004000CAFD1ECE731
:101CD00070B516460D4604461EE02046FFF7C0FECE
:101CE00008B1012070BD681C16D0FEF7F5FD801B01
:101CF000A84200D885B920684069C04300060BD5CA
:101D0000002044F8300F20216173A073216941F055
:101D1000200121612073E4E720684069C043000688
:101D2000DBD4002070BD000010B586B00024174839
:101D3000009401940294039404941349059401605F
:101D40000821C0E9011440F2E731C0E903144461FD
:101D50008461FFF79DFA08B172B6FEE74FF4805038
:101D6000009069460948FFF71EFB08B172B6FEE70E
:101D7000049404A905480594FFF756FA002801D0F9
:101D800072B6FEE706B010BD002C014068000020CE
:101D9000FEE7FEE77047704710B58AB0411C22D0BD
:101DA00018B340F6FF74224612A101A8FEF710FAFC
:101DB00001A8FEF711FB82B24FF0FF3301A91248D0
:101DC000FFF7FCFD1148210A0223017044706420D2
:101DD00000900D480D4AC0219C38FEF747FE0028B0
:101DE00006D072B6FEE70024DDE74FF40064DAE7C0
:101DF0000AB010BD4441432056616C75653A2025F8
:101E00003034580D0A000000B0000020020000200D
:101E1000FEF7F0BE30B58FB028216846FEF7FBFA1A
:101E200014210AA8FEF7F7FA01210804CDE90010F1
:101E30000024029402250491CDE907504FF4E010EC
:101E400009906846FFF74AF808B172B6FEE70F201E
:101E5000CDE90A054FF48060CDE90C4002210AA8C3
:101E60000E94FEF75FFF002801D072B6FEE70FB0B8
:101E700030BD70470148FFF705BB00006800002037
:101E8000F0B50268194B1A4C1A4D4FF08047984232
:101E900005D0B84203D0A04201D0A84203D122F01D
:101EA00070064A683243984205D0B84203D0A04237
:101EB00001D0A84203D122F44074CA6822434C697D
:101EC00022F08002224302608A68C2620A6882624B
:101ED000984201D109690163012141610169C90782
:101EE00003D0016921F001010161F0BD002C014026
:101EF000000400400008004010B5846842EA032254
:101F000024F47F440A432243826010BD826822F099
:101F100070020A4342F007018160704710B5036AFE
:101F2000046A24F001040462846924F0F00444EAA1
:101F3000021423F00A020A438461026210BD10B544
:101F4000036A046A24F010040462846923F0A00385
:101F500024F4704444EA023243EA011182610162CE
:101F600010BD10B5406A0021C185C184FFF752FB46
:101F700010BD01680C3151E8002F22F4907241E845
:101F80000023002BF5D10168143151E8002F22F015
:101F9000010241E80023002BF5D1016B012909D191
:101FA00001680C3151E8002F22F0100241E80023B3
:101FB000002BF5D1202180F84210002101637047E9
:101FC00008B590F84210222901D0022008BD82688D
:101FD0004FF480539A4201D1016921B1816A9A423A
:101FE0001BD04AB10AE00268816A5268C2F3080253
:101FF0000A80816A891C08E0026972B1026852682D
:1020000002F07F020A70816A491C8162C18D491EFB
:102010000904090CC18503D01BE002685268F1E78E
:102020000168CA6822F02002CA600168CA6822F406
:102030008072CA6001684A6922F001024A61202167
:1020400080F8421000214163026B012A03D0FFF7A0
:1020500099FC002008BD016301680C3151E8002F94
:1020600022F0100241E80023002BF5D101680A6834
:10207000D20602D50A6849680091818DFFF7C9FA36
:10208000E7E7000070B5044600680169E26821F4E2
:102090004051114301612169A06808436169084307
:1020A0002168CA6841F20C639A430243CA602068FF
:1020B0004169A26921F44071114341611E492068C0
:1020C000884202D1FEF7D4FE01E0FEF7C1FE00EB2C
:1020D000C00101EB0012606864218000B2FBF0F3E4
:1020E000B3FBF1F36FF018067343B2FBF0F5B2FBEC
:1020F000F0F605EB8305322303EB0515B5FBF1F58F
:10210000B6FBF1F605F0F00505EB0615B2FBF0F6AF
:10211000B2FBF0F0B0FBF1F06FF01802504306EBA9
:10212000800003EB0010B0FBF1F0216800F00F001D
:102130002844886070BD00000038014081628285BB
:10214000C28500214164222180F84210016921B139
:102150000168CA6842F48072CA6001684A6942F044
:1021600001024A610068C16841F02001C16000209D
:1021700070472DE9F843984617460D460446089ED9
:1021800024E0701C22D0FEF7A7FBA0EB0800B042B1
:102190001AD8CEB12068C168490717D5802D15D04F
:1021A000402D13D00168C94309070FD401680025E9
:1021B000406800902046FFF7DCFE0820606484F849
:1021C00040500120BDE8F8830320FBE72068006849
:1021D00035EA000004D00020B842D2D00020F1E758
:1021E0000120F9E70148FFF717BA0000B00000200E
:1021F000FEE70907090E002804DB00F1E02080F863
:102200000014704700F00F0000F1E02080F8141D6A
:10221000704730380A2801D20120704700207047EB
:1022200008B5FEF7EFFCFFF7F5FD2548816941F0A1
:1022300020018161816901F020010091816941F0F3
:1022400004018161816901F004010091816941F01B
:102250000801816180691B4900F0080000901A485C
:10226000002401601949C0E901144FF48041C0E91C
:10227000034144618461C4610462FEF733FB08B129
:1022800072B6FEE7104812499C3001604FF4E1310C
:10229000C0E901140C21C460C0E904418461C46137
:1022A000FFF7F0FA08B172B6FEE7FFF73DFD064909
:1022B0000A22E431A1F14800FFF756FBFEE70000D7
:1022C000001002400054004014000020A0860100CD
:1022D00000380140010202030405060708090A0B41
:1022E0000C0D0E0F10100000000000000000010295
:1022F000030406070809000000000102030430314E
:10230000323334353637383941424344454640301C
:1023100058003031323334353637383961626364CE
:1023200065664030780004000008000000000000EE
:1023300000020001000010005823000800000020E7
:1023400014000000280100086C230008140000207D
:102350005C070000440100080000000001000000CC
:0C236000100000000000000000127A00D5
:04000005080000ED02
:00000001FF
