:020000040800F2
:1000000020080020890100085F240008EB1900087F
:100010005D2400081D0300081D28000800000000E2
:100020000000000000000000000000006324000841
:100030001F0300080000000061240008AD24000830
:10004000A3010008A3010008A3010008A301000800
:10005000A3010008A3010008A3010008A3010008F0
:10006000A3010008A3010008A3010008A3010008E0
:10007000A3010008A3010008A3010008A3010008D0
:10008000A3010008A3010008A3010008A3010008C0
:10009000A3010008A3010008A3010008A3010008B0
:1000A000A301000811250008A3010008A30100080E
:1000B000A3010008A3010008A3010008F919000822
:1000C000ED190008A3010008A3010008A30100081E
:1000D000A301000811280008A3010008A3010008DB
:1000E000A3010008A3010008A301000800F002F822
:1000F00000F03AF80AA090E8000C82448344AAF188
:100100000107DA4501D100F02FF8AFF2090EBAE885
:100110000F0013F0010F18BFFB1A43F0010318473B
:100120002C2800004C280000103A24BF78C878C161
:10013000FAD8520724BF30C830C144BF04680C60ED
:10014000704700000023002400250026103A28BF35
:1001500078C1FBD8520728BF30C148BF0B60704739
:100160001FB51FBD10B510BD00F058F81146FFF7C0
:10017000F7FF02F07BFB00F076F803B4FFF7F2FF25
:1001800003BC00F07DF8000009488047094800479B
:10019000FEE7FEE7FEE7FEE7FEE7FEE7FEE7FEE737
:1001A000FEE7FEE704480549054A064B7047000094
:1001B0000F250008ED000008200200202008002084
:1001C00020040020200400204FF0000200B5134658
:1001D00094469646203922BFA0E80C50A0E80C5067
:1001E000B1F12001BFF4F7AF090728BFA0E80C5018
:1001F00048BF0CC05DF804EB890028BF40F8042B11
:1002000008BF704748BF20F8022B11F0804F18BF7D
:1002100000F8012B7047704770477047754600F033
:100220002BF8AE4605006946534620F00700854688
:1002300018B020B5FFF7B6FFBDE820404FF000062C
:100240004FF000074FF000084FF0000B21F00701BE
:10025000AC46ACE8C009ACE8C009ACE8C009ACE801
:10026000C0098D46704710B50446AFF300802046A4
:10027000BDE81040FFF781BF00487047BC01002077
:1002800001491820ABBEFEE72600020070470000BF
:1002900070B505460C46084602F0D2FA1C491D4AC4
:1002A00000200B5C1354401C0828FAD31A49002084
:1002B00016180B5C401C33721028F9D3002003E0A1
:1002C000295C1318401C1976A042F9DB1249002062
:1002D0004FF0FF3310311456012C03D03F2808D2C1
:1002E00024B106E05B425BB20B5404E0141864785E
:1002F00034B100240C54401CC0B24028EBD370BD74
:100300005B425BB20B540C18401C6370C0B2F2E746
:10031000050000207C01002020000020FEE770473F
:1003200010B590F821100022022905D00421816324
:1003300080F82020012010BD01680B6823F00E0317
:100340000B6001680B6823F001030B6090F84030EC
:10035000C46B012101FA03F3636080F8211080F877
:100360002020104610BD000010B590F82110002488
:10037000022903D00421816301243DE001680A6859
:1003800022F00E020A6001680A6822F001020A6087
:100390001A4A0168914201D1012121E0174A143221
:1003A000914201D110211BE0144A2832914201D11F
:1003B000891515E0114A3C32914201D189140FE0B0
:1003C0000E4A5032914202D14FF4803108E00B4A7C
:1003D0006432914202D14FF4801101E04FF08071FC
:1003E000064A083A5160012180F82110002180F866
:1003F0002010416B01B18847204610BD0800024023
:1004000090F82100704700002DE9F84FDFF8B8910F
:100410000024A9F1040B23460F2709F1040AABF1CC
:10042000040EC9E00125A5402A40AA427DD1674EAD
:10043000D1F804C0ACEB0608B44532D014DCBCF1F2
:10044000030F3AD009DCBCF1000F2AD0BCF1010F38
:100450001CD0BCF1020F31D11DE0BCF1110F17D03F
:10046000BCF1120F2AD119E0B8F5881F19D006DCAB
:10047000B8F5803F15D0B8F5801F1FD111E0B8F551
:10048000001F0ED0B8F5041F18D10AE0CB6815E0A4
:10049000CB681B1D12E0CB6808330FE0CB680C3330
:1004A0000CE08B682BB1012B4FF0080303D04561A2
:1004B00004E0042302E0056100E00023FF2A01D8E4
:1004C000064601E000F104064FEA840501D9A5F1D2
:1004D0002005D6F8008007FA05FC28EA0C0803FA84
:1004E00005F548EA0508C6F800804D68ED0062D5BC
:1004F000374DAE6946F00106AE61AD6924F00306E2
:1005000005F001050095334D06EB050CDCF80850AD
:10051000A607360F07FA06F825EA0805DFF8B880BF
:10052000404503D14FF0000817E044E0DFF8AC800D
:10053000404502D14FF001080FE0DFF8A4804045AC
:1005400002D14FF0020808E0DFF89880404502D160
:100550004FF0030801E04FF0040808FA06F848EAF3
:100560000508CCF808804D68D9F80060ED024D46CA
:1005700001D5164300E096432E604D68DAF800601E
:10058000AD02554601D5164300E096432E604D68F6
:10059000DBF80060AD035D4601D5164300E09643ED
:1005A0002E604D68DEF80060ED03754601D51643F8
:1005B00000E096432E60641C0D682A46E5407FF4F7
:1005C00031AFBDE8F88F00000804014000001110B1
:1005D000001002400000014000080140000C0140F2
:1005E00000100140001401400AB101617047090484
:1005F000FBE7000001488068704700001000002001
:10060000704770472DE9F041016804464A694E6819
:1006100090F83E000025D743FA050BD4F243D205EB
:1006200008D46FF4807201254A6121680A6842F497
:1006300000420A60B90508D4F143C90505D422680F
:100640006FF4007145F002055161790525D4F1433D
:10065000C90522D4638D94F83D10226B202808D15F
:100660003BB9212910D029290ED0282901D1212ACE
:100670000AD022686FF48061516145F004051028AA
:1006800006D0402804D008E0204601F0BDFD04E07B
:100690002068016841F400710160380508D4F04316
:1006A000C00505D421686FF4006045F00805486175
:1006B000002D07D0206C284320642046BDE8F0417F
:1006C00001F006BABDE8F0812DE9F047026800218B
:1006D0005368C66A90F83E4090F83D50102C12D0F6
:1006E000402C10D0046C002C7DD05469E443A60744
:1006F0007AD4DE43B60577D4036C03B19169BDE8C3
:10070000F04701F05DBD976951694FF42A0CC94368
:100710005FEAC1784FF02A4904D066452AD04E4599
:1007200028D010E0DE43B6050DD4C16A614501D181
:10073000012103E0C16A494501D10821C162BDE838
:10074000F04701F0A3BC0E0716D4DE43B60513D460
:10075000416CC9B21161416B09B1896A29B9816BD8
:10076000002907D0896A002904D00068416841F453
:1007700000614160BDE8F0878E0706D4DE43B60510
:1007800003D4BDE8F04701F0D5BBFE4352687607BD
:100790004FEA02521DD4002AECDB0A0608D4DA43E1
:1007A000520505D4490705D5BDE8F04701F066BB01
:1007B0004907DFD4D9438905DCD4212D05D0402C4D
:1007C000D8D1BDE8F04701F0A7BCBDE8F04701F083
:1007D00013BB002ACEDB4A060BD4DA43520508D4F9
:1007E000490708D501E00DE00EE0BDE8F04701F053
:1007F00089BA4907BED4D9438905BBD4BDE8F047BF
:1008000001F012BA916970E7E10606D4D94389056F
:1008100003D4BDE8F04701F03FBD2821212D27D0AA
:10082000292D25D0650655D4DD436D0552D46407C6
:1008300052D590F83D30448D002C9BD01269446A0B
:100840002270426A521C4262428D521E4285428D83
:10085000002A8FD12A2B8DD10268536823F480633C
:1008600053602222026380F83D1000F0B7F981E75F
:10087000250623D4DD436D0520D4640720D590F8E8
:100880003D30448D002CF2D0446A24781461426AD1
:10089000521C4262428D521E4285428D002AE6D190
:1008A000292BE4D10268536823F48063536021222A
:1008B000026380F83D1000F092F95BE76107D6D43F
:1008C000D9438905D3D4418D0029D0D0416A097814
:1008D00011610AE06107CAD4D9438905C7D4418DA3
:1008E0000029C4D01169426A1170416A491C4162F1
:1008F000418D491E41853DE77047000070B50400F9
:1009000025D094F83D00002520B984F83C502046BD
:1009100000F026F9242084F83D002068016821F0C9
:10092000010101602068016841F400410160206814
:10093000016821F40041016000F080FA4D4A6168CD
:10094000914201D84C4900E04C49884201D2012033
:1009500070BD4B492368B0FBF1F15E6826F03F069D
:100960000E435E606368934206D94FF49673594311
:100970004FF47A73B1FBF3F12368491C1E6A26F029
:100980003F06314319626168914210D84900401E08
:10099000B0FBF1F2521CC2F30B02042A01D2042074
:1009A00022E0B0FBF1F0401CC0F30B001CE0A26899
:1009B000F2B301EBC10303EB0116431EB3FBF6F3E5
:1009C0005B1C43F480431B0549D092B301EBC10289
:1009D00002EB0111401EB0FBF1F0401CC0F30B0014
:1009E00040F4804040F400402168CA694CF6FF732F
:1009F0009A431043C861D4E9071001432068026894
:100A000022F0C00211430160D4E9030101432068D0
:100A1000826848F2FF339A4311438160D4E90501AB
:100A200008432168CA6822F0FF021043C86001E051
:100A30000EE016E02068016841F0010101602564C4
:100A4000202084F83D00256384F83E50002070BDCE
:100A500001EB4106431EB3FBF6F35B1CB3E7012039
:100A6000C2E701EB4101401EB0FBF1F0401CC0F3B6
:100A70000B00B7E7A086010080841E0000093D003E
:100A800040420F0070477047044900680968884277
:100A900002D10349012088707047000070000020D7
:100AA0000000002078B50024009490F83D50202DDF
:100AB0004ED1284D46F2A8162D68B5FBF6F505EB8C
:100AC000C50606EB051500956D1E009506D0056858
:100AD000AD69ED43AD070BD4009DF5E740F8304F0D
:100AE000202141738473016941F0200101612FE0ED
:100AF00090F83C50012D2BD0012580F83C50056822
:100B00002E68F60703D12E6846F001062E600568B0
:100B10002E6826F400662E60212580F83D501025B1
:100B200080F83E50046442624385428D02850A4A41
:100B3000C262416480F83C4001684A6842F4E06265
:100B40004A600068016841F480710160002078BD4E
:100B5000022078BD1C0000200000FFFF7047704796
:100B600010B586B0002100910191029103910068B7
:100B7000174988422AD1174CA06940F00800A061AB
:100B8000A069694600F008000490C020009012207F
:100B90000190032003901048FFF736FCE06940F411
:100BA0000010E061E069002200F4001004900121CF
:100BB0001F2000F07BF81F2000F06AF800220121BE
:100BC000202000F073F8202000F062F806B010BD7D
:100BD0000054004000100240000C01407047704774
:100BE000024881680278114481607047100000203B
:100BF000074810B5016841F010010160032000F0C2
:100C000075F80F2000F006F800F024F8002010BD61
:100C10000020024070B50D4D04464FF47A712878DB
:100C2000B1FBF0F00A490968B1FBF0F000F0DCFA22
:100C300048B9102C07D200222146501E00F036F889
:100C400000206C6070BD012070BD0000100000200D
:100C50001C0000200C4808B5816941F00101816148
:100C6000816901F001010091C16941F08051C161C8
:100C7000C06900F0805000900448416821F0E061B4
:100C800041F00071416008BD0010024000000140C9
:100C9000002809DB00F01F0201219140400980007B
:100CA00000F1E020C0F8001170470000F0B40E4BD6
:100CB0001B680C46C3F30223C3F10705042D00D9BA
:100CC0000425191D072901D2002300E0DB1E01269F
:100CD00006FA05F1491E214099409E40761E1640B5
:100CE0003143F0BC01F09BBD0CED00E0064900F083
:100CF000070208684FF6FF03184040EA0220034A43
:100D000010430860704700000CED00E00000FA0599
:100D10002DE9F0470F46050061D0434E306800F0E2
:100D20000700B84209D2306820F00700384330602D
:100D3000306800F00700B84251D128683B4C810769
:100D400012D5400703D5606840F4E0606060287801
:100D5000000703D5606840F4605060606068A9686F
:100D600020F0F000084360602878C00728D0686849
:100D7000012810D02168022810D0890700292EDA16
:100D8000616821F0030101436160FFF733FC804695
:100D900041F288390DE021688903EFE78901EDE729
:100DA000FFF728FCA0EB0801494502D90320BDE864
:100DB000F0876068696800F00C00B0EB810FEFD13C
:100DC000306800F00700B8420BD9306820F0070007
:100DD00038433060306800F00700B84201D001208D
:100DE000E5E72878400705D56068E96820F4E06009
:100DF000084360602878000706D56068296920F4F8
:100E0000605040EAC100606000F038F86168084A4C
:100E1000C1F30311515CC8400649086006480068E8
:100E2000FFF7F8FE0020C2E7002002400010024059
:100E3000322900081C000020140000200448054945
:100E400000684968044AC1F30221515CC8407047F8
:100E50001C000020001002404229000804480549F7
:100E600000684968044AC1F3C221515CC840704718
:100E70001C00002000100240422900080E4A516860
:100E80000E4801F00C03042B11D0082B0FD10C4895
:100E9000C1F38343C903C05C0AD55168084AC1F352
:100EA0004041921E515C054A5043B0FBF1F070473F
:100EB00004494843704700000010024000127A00C5
:100EC0002229000800093D002DE9F84F040070D0E8
:100ED0002078C04DC00749D06868C0F38100012860
:100EE00007D06868C0F38100022809D16868C00390
:100EF00006D52868800339D560680028E7D035E03A
:100F00006068B0F5803F0BD010B1B0F5A02F11D0C4
:100F1000286820F480302860286820F4802002E0CF
:100F2000286840F480302860606890B1FFF762FB69
:100F300006460AE0286840F480202860F0E700BFF9
:100F4000FFF758FB801B642873D828688003F7D507
:100F50000CE0FFF74FFB064605E000BFFFF74AFB3A
:100F6000801B6428F0D828688003F7D420789A4E34
:100F700080074FF001094FF0000839D5686810F07C
:100F80000C0F07D06868C0F38100022809D1686897
:100F9000C00306D42868800714D52069012808D129
:100FA00010E02069B0B1C6F80090FFF723FB0746B8
:100FB00005E00AE1FFF71EFBC01B0228C4D8286821
:100FC0008007F7D52868616920F0F80040EAC10081
:100FD00028600DE0C6F80080FFF70CFB074604E030
:100FE000FFF708FBC01B022823D828688007F7D426
:100FF000207800072CD57948A169D9B1C0F80090B4
:10100000FFF7F8FA074604E0FFF7F4FAC01B0228DE
:101010000FD8686A8007F7D571484FF4FA51006815
:10102000B0FBF1F0009000BF0098411E0091FAD291
:101030000EE080E0C0F80080FFF7DCFA074604E02D
:10104000FFF7D8FAC01B022875D8686A8007F7D462
:101050002078400760D5E8690027C00008D4E86917
:1010600040F08050E861E869012700F0805000906E
:101070005C480168C90513D40168834641F4807156
:101080000160FFF7B7FA824606E000BFFFF7B2FA49
:10109000A0EB0A0064284ED8DBF80000C005F5D5A7
:1010A000E06801280AD008B1052813D0286A20F08A
:1010B00001002862286A20F0040002E0286A40F05B
:1010C00001002862E06841F2883B98B1FFF792FA8C
:1010D00082460BE0286A40F004002862EEE700BF79
:1010E000FFF788FAA0EB0A0159455AD8286A800709
:1010F000F6D50CE0FFF77EFA824605E0FFF77AFAB4
:10110000A0EB0A0159454CD8286A8007F6D41FB1D4
:10111000E86920F08050E861E06988B36968C1F34C
:101120008101022944D00228C6F8608004D0FFF76C
:1011300061FA044638E034E0FFF75CFA074604E061
:10114000FFF758FAC01B02282BD828688001F7D473
:10115000206AB0F5803F05D16868A16820F40030AE
:1011600008436860D4E908010843696821F47411F0
:1011700008436860C6F86090FFF73CFA044606E052
:1011800025E000BFFFF736FA001B022809D82868BF
:101190008001F7D51BE000BFFFF72CFA001B0228E7
:1011A00002D90320BDE8F88F28688001F4D40EE04E
:1011B0000128F7D06868226A00F48031914204D196
:1011C000616A00F47010884201D00120EAE7002033
:1011D000E8E7000000100240000042428004424262
:1011E0001C0000200070004010B5401EB0F1807F50
:1011F00001D3012010BD4FF0E02460610F21601782
:1012000001F00DFB0020A06107202061002010BD2F
:101210007047704770B590F83C20012A26D0012411
:1012200080F83C40022280F83D2003685A689D689F
:1012300022F070060A6832435A600D4B02689A42E7
:1012400008D0B2F1804F05D00A4B9A4202D00A4B27
:101250009A4204D1496825F080031943916080F8CF
:101260003D40002180F83C10084670BD022070BD52
:10127000002C0140000400400008004010B50400AC
:1012800003D094F83D0010B107E0012010BD00200C
:1012900084F83C00204600F01FF8022084F83D004E
:1012A000211D206801F03AF9012084F8460084F8F5
:1012B0003E0084F83F0084F8400084F8410084F840
:1012C000420084F8430084F8440084F8450084F820
:1012D0003D00002010BD000008B500680B498842A1
:1012E00012D10B48816941F400618161806900225B
:1012F00000F40060009001211920FFF7D7FCBDE841
:1013000008401920FFF7C4BC08BD0000002C0140B4
:101310000010024090F83D10012901D001207047D3
:10132000022180F83D100168CA6842F00102CA60DB
:1013300000680B49884208D0B0F1804F05D00949B8
:10134000884202D00849884204D1816801F007012F
:10135000062903D0016841F00101016000207047B7
:10136000002C0140000400400008004001680A6AA7
:1013700041F211131A4207D10A6A9B101A4203D193
:101380000A6822F001020A60012180F83D10002065
:10139000704770B5044690F83C000025012817D02E
:1013A000012684F83C60022084F83D0020688268B1
:1013B00022F0770222F47F4282600868502838D0F9
:1013C0000DDC20284FD005DC90B3102811D14AE065
:1013D000022070BD302846D040280AD13BE060286A
:1013E0002FD070280DD0B0F5805F03D0B0F5005F2E
:1013F00012D0012584F83D60002084F83C00284686
:1014000070BDCB68D1E90121206801F0C3F82068E4
:10141000816841F0770109E0CB68D1E901212068BA
:1014200001F0B8F82068816841F480418160E1E70B
:1014300019E0CA684968206801F0BEF850212068A8
:1014400006E0CA684968206801F0C7F86021206892
:1014500001F0AAF8CEE7CA684968206801F0ACF844
:1014600040212068F4E7226801461046F0E7704703
:101470002DE9F04104460068C66805694FF0000791
:10148000A90713D5B10711D5F91E016101202077F5
:10149000206880698007204602D0FFF7E8FF04E05B
:1014A00000F07EF8204600F07CF82777680716D514
:1014B000700714D521686FF00400086102202077BE
:1014C0002068806910F4407F204602D0FFF7CFFFEC
:1014D00004E000F065F8204600F063F8277728075D
:1014E00015D5300713D521686FF008000861042076
:1014F00020772068C0698007204602D0FFF7B7FF39
:1015000004E000F04DF8204600F04BF82777E8069D
:1015100016D5F00614D521686FF010000861082078
:1015200020772068C06910F4407F204602D0FFF782
:101530009EFF04E000F034F8204600F032F82777F0
:10154000E80708D0F00706D021686FF001000861B5
:10155000204600F027F8280608D5300606D5216871
:101560006FF0800008612046FFF752FE680608D53C
:10157000700606D521686FF040000861204600F033
:1015800055F8A8060AD5B00608D521686FF02000E6
:1015900008612046BDE8F041FFF73BBEBDE8F081A1
:1015A0007047704770B51E4D04460122114628460B
:1015B000FFF71AF81B4920680968884212D11A4CB3
:1015C000184960789439282801D2207813E0283807
:1015D000282808D200201349543900F043FF6078CE
:1015E000401C607070BD0022627020783E2804D8D4
:1015F000401CC0B220700856EDE722700948FFF782
:10160000B5FE002201212846FEF7EEFF0549BDE8A0
:10161000704028229031A1F1480000F0B3B90000D9
:1016200000080140C40000200000002070477047FF
:1016300070470000F8B5016804460868CA684B693D
:1016400010F00F0F4FF0000559D003F0010602F41F
:101650009077374365D0C10705D0D10503D5616CBC
:1016600041F001016164410705D5D90703D0616CE0
:1016700041F002016164810705D5D90703D0616C8F
:1016800041F004016164010707D502F020013143F4
:1016900003D0616C41F008016164616C00293AD0AB
:1016A000800604D5900602D5204600F0D7FF2068BA
:1016B0004069616CC0F38010090700D460B3204614
:1016C00000F0A5FF20684069400621D5206814304D
:1016D00050E8001F21F0400140E80012002AF5D137
:1016E000E06BA8B16D494163E06BFEF73DFE002859
:1016F00011D0E06B416B01B0BDE8F04008478306B4
:101700000FD593060DD52046BDE8F84000F0A6BFE2
:101710002046FFF78DFFF8BD2046FFF789FF65647F
:10172000F8BD266B2023012E7CD1C6067AD5D606BD
:1017300078D508684868009048694FF0020640066E
:1017400040D5E16B086840680004000CE8D0A28D29
:101750008242E5D9E085886920282DD020680C30A8
:1017600050E8001F21F4807140E80012002AF5D1F2
:101770002068143050E8001F21F0010140E80012F9
:10178000002AF5D12068143050E8001F21F04001F4
:1017900040E80012002AF5D184F842302563206821
:1017A0000C3050E8001F21F0100140E80012002A20
:1017B000F5D1E06BFEF7B4FD6663A08DE18D401AB4
:1017C00081B22AE0A08DE18D401A81B2E08D00281F
:1017D000A6D00029A4D022680C3252E8000F20F4D1
:1017E000907042E80007002FF5D12068143050E8CF
:1017F000002F22F0010240E80027002FF5D184F8E5
:101800004230256320680C3050E8002F22F010028F
:1018100040E80023002BF5D166632046FFF707FF61
:10182000F8BDFFE705062BD5150629D594F841002C
:101830002128F5D1A068B0F5805F01D12069B0B151
:10184000206A411C2162216800784860E08C401EBB
:101850000004000CE084E3D12068C16821F080011D
:10186000C1602068C16841F04001C160D8E7206ACA
:101870000088C0F308004860206A801C2062E5E709
:101880004006CDD55006CBD5CA68204622F040028E
:10189000CA6084F8413000F0A7F8C1E7FF250008CE
:1018A00070B5040004D094F84100002510B106E0A2
:1018B000012070BD84F84050204600F023F8242019
:1018C00084F841002068C16821F40051C1602046BD
:1018D00000F026FF2068016921F490410161206831
:1018E000416921F02A0141612068C16841F4005139
:1018F000C1606564202084F8410084F8420065637B
:10190000002070BD30B585B000240094019402948D
:1019100003940068184988422CD11848816941F421
:1019200080418161816901F480410491816941F0C4
:10193000040181618069124D00F0040004904FF4AD
:101940000070009002200190032003906946284611
:10195000FEF75AFD2815CDE9000469462846029491
:10196000FEF752FD002211462520FFF79FF92520A2
:10197000FFF78EF905B030BD00380140001002407D
:101980000008014090F84230202B01D0022070471F
:1019900021B11AB10023036300F01EBF012070477C
:1019A00010B5104900680968884219D100200D4916
:1019B0000123024648310C5C312C0FD00A54401CE4
:1019C000C0B22828F7D3074828214830FEF760FC2A
:1019D0000448BDE810404838FFF79CBC0B54EEE7C4
:1019E00010BD00000C0100207047FEE70148FEF723
:1019F00009BE0000700000200148FEF765BE00002F
:101A00007000002038B5406A002190F83D202B4B33
:101A100046F2A8141B68B3FBF4F3C3EBC30303EB58
:101A2000830300933BB15B1E009303681B689B0517
:101A300005D5009BF6E7036C43F020030364436B7A
:101A400003B19962836B03B1996203681C6824F443
:101A500080641C604185436B03B15963836B03B1A0
:101A6000596303681C6824F001041C6090F83D4031
:101A70002023602C0BD0282434EA02020FD080F8F7
:101A80003D3080F83E1000BFFEF736FF38BD80F8CD
:101A90003D3080F83E100164FEF7B2FD38BD0268AB
:101AA000136843F0010313600268136843F4806312
:101AB0001360016380F83D40E6E700001C00002051
:101AC00000684169C943090601D4002101617047DA
:101AD00070B5044690F83D0094F83E10102901D0EE
:101AE000402906D1222804D121680A6822F4006224
:101AF0000A60282131EA00024FF000054FF020066D
:101B000026D021684968090505D4602803D084F8E7
:101B10003D6084F83E50256320684168090537D54B
:101B2000416821F400614160606B90F821203C49DC
:101B3000012A11D04163606BFEF716FC38B32068B0
:101B4000016821F00101016084F83D60606B1CE0D8
:101B5000256384F83D10DFE7A06B4163A06BFEF7BF
:101B600003FCA0B120684169C943490605D4006956
:101B7000616A0870606A401C60622068016821F038
:101B80000101016084F83D60A06B416B884710E063
:101B900094F83D10602910D04169C943490605D425
:101BA0000069616A0870606A401C60622046FEF746
:101BB000A3FE206CC1071CD115E084F83D602564AC
:101BC0004169C943490605D40069616A0870606AC1
:101BD000401C60622068016821F00101016020461C
:101BE000FEF70EFDE5E7810703D4410701D40007A6
:101BF00004D52068416821F4E061416094F83D001B
:101C0000216C49070BD5282809D10648E0622563D5
:101C100084F83D6084F83E502046FEF733FF70BDE7
:101C2000051A00080000FFFF10B5C26A438D016865
:101C3000042B06D0438D032B08D0438D022B1DD0DF
:101C400012E04A6822F480624A600CE04B6823F498
:101C500080634B60042A06D0022A04D001680A6817
:101C600022F480620A6001680969426A1170416A5F
:101C7000491C4162418D491E418510BD012A34D065
:101C8000102A32D0042A34D0022A32D00B6843F40E
:101C900000730B6001680969436A1970416A491C45
:101CA0004162438D5B1E438503681B690B70416A6B
:101CB000491C4162418D491E418501684B6823F4EE
:101CC00040734B60202180F83D1090F83E30002199
:101CD000402B80F83E1010D0082A02D0202A00D0D5
:101CE00012210163FEF7CFFE10BD0B6823F4806361
:101CF000CFE70B6843F48063CBE70163FEF72EFF69
:101D000010BD000038B590F83D10222910D1C36AEB
:101D1000418D03290DD901680969426A1170416A30
:101D2000491C4162418D491E4185418D032906D0E0
:101D300038BDC26A022A02D0012906D029B1006842
:101D4000416821F48061416038BD2A4A46F2A814F6
:101D500000211268B2FBF4F202EB820200920268E8
:101D60002024009D6D1E009526D01568AD05F8D481
:101D7000156825F4806515600268556825F4E065EE
:101D8000556002681269456A2A70426A521C4262B2
:101D9000428D521E428580F83D4090F83E2080F8EA
:101DA0003E10402A21D0082B02D0202B00D0122137
:101DB0000163FEF768FE38BD036C43F02003036443
:101DC000536823F4E063536002681269436A1A702F
:101DD000426A521C4262428D521E428580F83D404A
:101DE00080F83E10FEF788FD38BD0163FEF7B6FEB1
:101DF00038BD00001C00002010B5C26A90F83D10EC
:101E000021290BD1418D51B1416A026809781161D4
:101E1000416A491C4162418D491E418510BD202304
:101E20000021082A13D0202A11D012F5803F0ED0AD
:101E30000268546824F4E06454601122026380F85C
:101E40003E1080F83D3000BFFEF71EFE10BD026858
:101E5000546824F4E06454600268146844F4007424
:101E60001460016380F83D3090F83E2080F83E1009
:101E7000402AE9D1FEF773FE10BD000010B590F8BE
:101E80003D1090F83E30C26A048DB4B1212903D0D0
:101E9000402B11D122290FD1418DE1B390F83E1092
:101EA000402942D0416A026809781161416A491C9F
:101EB0004162418D491E418510BD2129E8D1202371
:101EC0000021082A13D0202A11D012F5803F0ED00D
:101ED0000268546824F4E06454601122026380F8BC
:101EE0003E1080F83D3000BFFEF7CEFD10BD026809
:101EF000546824F4E06454600268146844F4007484
:101F00001460016380F83D3090F83E2080F83E1068
:101F1000402AE9D100E002E0FEF721FE10BD006892
:101F2000416821F48061416010BDBDE8104000F0BF
:101F3000F3B8000078B590F83E50C26A046B90F890
:101F40003D6000230168222E73D1066D0EB9402D2D
:101F50006FD0056D1DB90569B5F5404F1BD0458D96
:101F600095B3468D484D012E20D0448D022C4DD086
:101F70000C6844F480640C6001684C68240579D5D1
:101F8000AA4273D0012A71D0082A6FD0102A6DD0CE
:101F9000202A6BD06EE04A698A6900920A6842F48E
:101FA00080720A60016D491C016578BDAA4214D196
:101FB0000A6822F480620A6001684A68120504D542
:101FC0000A6822F4806217E0FFE74A698A69009292
:101FD0000A6842F400720A6050E0082A10D0202AF1
:101FE0000ED0122C0AD0042A03D0022A01D0102AC3
:101FF000E6D10A6842F480620A603BE0012ADFD041
:102000000A6822F480620A600168DEE7042A11D0BF
:10201000022A0FD0102A0DD00C6844F400640C6022
:1020200001684C698C6900940C6824F480640C602D
:1020300008E025E00C6844F480640C6001684C6999
:102040008969009101684C68240517D5AA4207D018
:10205000012A05D0082A03D0102A01D0202A0DD148
:102060004A6842F480524A6008E0FFE74A6842F456
:1020700080524A6001684A6989690091036578BDA8
:1020800048698869009078BD0000FFFF90F83E1015
:10209000402910D00169B1F5804F19D0016DA9B365
:1020A000016D012910D1416C5FF0F10201F4407122
:1020B00042EAD11106E0016D0029416C05D0C9B298
:1020C00041F0010100680161704701F0FE01F9E78C
:1020D00090F83D102129416C09D0C9B241F00101AD
:1020E00002681161416B29B1896A49B902E001F0C6
:1020F000FE01F5E7816B0029E6D0896A0029E3D06B
:102100000068416841F4006141607047FFE7416C3D
:10211000F02201F44071CBE710B590F83D10026D4C
:102120004AB1026D012A14D0026D022A16D0BDE810
:102130001040FFF7C5BCC16C0129816C02D0C1F30E
:10214000072108E00268C9B21161016D891C0165AF
:1021500010BD816CC9B20268116123E022291CD034
:10216000428D0AB1212920D0428D002AF0D12129A7
:10217000EED101684A6822F4E0624A6001680A68A8
:1021800042F400720A6000210163202280F83D20A1
:1021900080F83E10FEF7E3FC10BD01680A6842F4C7
:1021A00080720A60016D491CD1E7416A02680978B2
:1021B0001161416A491C4162418D491E418510BD32
:1021C00038B50C4690F83D2000212825954302683B
:1021D0000B4605D051699169009180F83C3038BDBB
:1021E000556825F480655560E243540700D5012108
:1021F000120601D5828900E0028B80F83C3092B251
:10220000FEF7FFF938BD00002DE9F04190F83D30B0
:102210000446C26A002120261E4F00686FF48065C4
:10222000082A01D0202A01D1282B04D0212B17D035
:102230004561BDE8F081E762426822F4E0624260F5
:10224000206845612068026822F480620260216390
:1022500084F83D6084F83E102046FEF713FCE8E762
:10226000E7622122226384F83D6084F83E104168D1
:1022700021F4E0614160206845612068016821F433
:10228000806101602046FFF71BFC2046FEF7A7FC9B
:10229000CFE700000000FFFFF8B590F83D6004466E
:1022A0000068416821F4E0614160206800254169CF
:1022B0000091016841F0010101602068016821F48A
:1022C0008061016020684168090520D5474F222EB2
:1022D00048D02A2E46D0616B096849686185618DB6
:1022E00019B1216C41F004012164416821F40061BD
:1022F0004160606BFEF784F8012808D0606B47638B
:10230000606BFEF731F810B1606B416B8847608DF0
:1023100008B320684169C943490708D40069616A64
:102320000870606A401C6062608D401E6085206895
:102330004169C943490608D40069616A0870606A46
:10234000401C6062608D401E6085608D18B1206CFD
:1023500040F004002064206C00B32046BDE8F84043
:10236000FFF7B6BBA16B096849686185618D19B13A
:10237000216C41F004012164416821F40061416055
:10238000A06BFEF73DF80128C1D0A06B4763A06B9E
:10239000FDF7EAFF0028BAD0A06BB6E72A2E06D1D7
:1023A0002563282084F83D002046FEF717FC94F8AA
:1023B0003D10202028290DD0216B222901D0222E6A
:1023C00007D1256384F83D0084F83E502046FEF78F
:1023D00005FCF8BD0649E162256384F83D0084F8F8
:1023E0003E502046FEF74EFBF8BD0000051A0008DF
:1023F0000000FFFF10B586B0002417480094019438
:102400000294039404941349059401604721C0E9A0
:1024100001147C21C0E9031444618461FEF72EFF9E
:1024200008B172B6FEE74FF48050009069460A4842
:10243000FEF7AFFF08B172B6FEE7049404A90648A0
:102440000594FEF7E7FE002801D072B6FEE706B05D
:1024500010BD0000002C0140C4000020FEE7FEE794
:102460007047704710B5411C16D0B8B140F6FF70E8
:102470000C49020A0A704870C81E8178002910D0E1
:1024800000218170C21C0223C0210748FEF70AFB0D
:10249000002806D072B6FEE70020E9E74FF400609E
:1024A000E6E710BD0300002070000020FEF798BB97
:1024B00030B58FB028216846FDF786FE14210AA8A2
:1024C000FDF782FE01210804CDE9001000240294EA
:1024D00002250491CDE907504FF4E01009906846B9
:1024E000FEF7F2FC08B172B6FEE70F20CDE90A054F
:1024F0004FF48060CDE90C4002210AA80E94FEF74B
:1025000007FC002801D072B6FEE70FB030BD70475F
:102510000148FEF7ADBF0000C4000020F0B502681E
:10252000194B1A4C1A4D4FF08047984205D0B842CB
:1025300003D0A04201D0A84203D122F070064A681D
:102540003243984205D0B84203D0A04201D0A842FD
:1025500003D122F44074CA6822434C6922F08002FD
:10256000224302608A68C2620A688262984201D18C
:1025700009690163012141610169C90703D001694A
:1025800021F001010161F0BD002C01400004004078
:102590000008004010B5846842EA032224F47F4416
:1025A0000A432243826010BD826822F070020A430F
:1025B00042F007018160704710B5036A046A24F095
:1025C00001040462846924F0F00444EA021423F054
:1025D0000A020A438461026210BD10B5036A046AEC
:1025E00024F010040462846923F0A00324F47044EE
:1025F00044EA023243EA01118261016210BD10B562
:10260000406A0021C185C184FFF712F810BD01683E
:102610000C3151E8002F22F4907241E80023002B86
:10262000F5D10168143151E8002F22F0010241E890
:102630000023002BF5D1016B012909D101680C3170
:1026400051E8002F22F0100241E80023002BF5D1C1
:10265000202180F8421000210163704708B590F8EE
:102660004210222901D0022008BD82684FF4805315
:102670009A4201D1016921B1816A9A421BD04AB1C3
:102680000AE00268816A5268C2F308020A80816A1D
:10269000891C08E0026972B10268526802F07F0288
:1026A0000A70816A491C8162C18D491E0904090CA6
:1026B000C18503D01BE002685268F1E70168CA686F
:1026C00022F02002CA600168CA6822F48072CA60DF
:1026D00001684A6922F001024A61202180F8421013
:1026E00000214163026B012A03D0FFF759F9002052
:1026F00008BD016301680C3151E8002F22F010027F
:1027000041E80023002BF5D101680A68D20602D502
:102710000A6849680091818DFEF789FFE7E70000AC
:1027200070B5044600680169E26821F44051114324
:1027300001612169A0680843616908432168CA688A
:1027400041F20C639A430243CA6020684169A2695E
:1027500021F44071114341611E492068884202D131
:10276000FEF77CFB01E0FEF769FB00EBC00101EB2B
:102770000012606864218000B2FBF0F3B3FBF1F358
:102780006FF018067343B2FBF0F5B2FBF0F605EB01
:102790008305322303EB0515B5FBF1F5B6FBF1F626
:1027A00005F0F00505EB0615B2FBF0F6B2FBF0F014
:1027B000B0FBF1F06FF01802504306EB800003EB22
:1027C0000010B0FBF1F0216800F00F002844886091
:1027D00070BD00000038014081628285C285002101
:1027E0004164222180F84210016921B10168CA6860
:1027F00042F48072CA6001684A6942F001024A618B
:102800000068C16841F02001C160002070470000ED
:102810000148FEF70FBF00000C010020FEE709078A
:10282000090E002804DB00F1E02080F80014704756
:1028300000F00F0000F1E02080F8141D7047000048
:1028400010B50021084C0CE000EBD07323F001021E
:10285000821A5810C1F110032344491C03F8012CBB
:10286000C9B20028F0D110BD2000002008B5FEF745
:10287000BFF9FFF71DFE2548816941F02001816104
:10288000816901F020010091816941F004018161B9
:10289000816901F004010091816941F008018161C1
:1028A00080691B4900F0080000901A48002401606C
:1028B0001949C0E901144FF48041C0E90341446162
:1028C0008461C4610462FEF719F808B172B6FEE7CC
:1028D000104812499C3001604FF4E131C0E9011405
:1028E0000C21C460C0E904418461C461FEF7D8FFD3
:1028F00008B172B6FEE7FFF77DFD06492822E431F4
:10290000A1F14800FFF73EF8FEE70000001002408A
:102910000054004070000020A086010000380140F3
:10292000010202030405060708090A0B0C0D0E0F2D
:102930001010000000000000000001020304060760
:102940000809000000000102030400006C290008CF
:102950000000002020000000280100088C29000849
:1029600020000020000800004401000800000100D1
:10297000000101010101010101000000010000004E
:0C298000100000000000000000127A00AF
:04000005080000ED02
:00000001FF
